{
  "_format": "hh-sol-artifact-1",
  "contractName": "ArchivaRegistry",
  "sourceName": "contracts/ArchivaRegistry.sol",
  "abi": [
    {
      "inputs": [
        {
          "internalType": "address",
          "name": "contractAddress",
          "type": "address"
        }
      ],
      "name": "addContract",
      "outputs": [],
      "stateMutability": "nonpayable",
      "type": "function"
    },
    {
      "inputs": [
        {
          "internalType": "uint256",
          "name": "",
          "type": "uint256"
        }
      ],
      "name": "contractList",
      "outputs": [
        {
          "internalType": "address",
          "name": "",
          "type": "address"
        }
      ],
      "stateMutability": "view",
      "type": "function"
    },
    {
      "inputs": [
        {
          "internalType": "address",
          "name": "",
          "type": "address"
        }
      ],
      "name": "contracts",
      "outputs": [
        {
          "internalType": "address",
          "name": "contractAddress",
          "type": "address"
        },
        {
          "internalType": "enum ArchivaRegistry.ContractState",
          "name": "state",
          "type": "uint8"
        },
        {
          "internalType": "string",
          "name": "ipfsHash",
          "type": "string"
        }
      ],
      "stateMutability": "view",
      "type": "function"
    },
    {
      "inputs": [],
      "name": "getAllContracts",
      "outputs": [
        {
          "internalType": "address[]",
          "name": "",
          "type": "address[]"
        }
      ],
      "stateMutability": "view",
      "type": "function"
    },
    {
      "inputs": [
        {
          "internalType": "address",
          "name": "contractAddress",
          "type": "address"
        }
      ],
      "name": "getContractState",
      "outputs": [
        {
          "internalType": "enum ArchivaRegistry.ContractState",
          "name": "",
          "type": "uint8"
        },
        {
          "internalType": "string",
          "name": "",
          "type": "string"
        }
      ],
      "stateMutability": "view",
      "type": "function"
    },
    {
      "inputs": [
        {
          "internalType": "address",
          "name": "contractAddress",
          "type": "address"
        },
        {
          "internalType": "enum ArchivaRegistry.ContractState",
          "name": "newState",
          "type": "uint8"
        },
        {
          "internalType": "string",
          "name": "ipfsHash",
          "type": "string"
        }
      ],
      "name": "updateContractState",
      "outputs": [],
      "stateMutability": "nonpayable",
      "type": "function"
    }
  ],
  "bytecode": "0x6080604052348015600f57600080fd5b5061120f8061001f6000396000f3fe608060405234801561001057600080fd5b50600436106100625760003560e01c806318d3ce96146100675780635f539d691461008557806369dc9ff3146100a15780636a5bb5d8146100d3578063aad7e36314610103578063b9c58d6514610134575b600080fd5b61006f610150565b60405161007c91906109c9565b60405180910390f35b61009f600480360381019061009a9190610a2b565b6101de565b005b6100bb60048036038101906100b69190610a2b565b610435565b6040516100ca93929190610b6e565b60405180910390f35b6100ed60048036038101906100e89190610be2565b610514565b6040516100fa9190610c0f565b60405180910390f35b61011d60048036038101906101189190610a2b565b610553565b60405161012b929190610c2a565b60405180910390f35b61014e60048036038101906101499190610db4565b61074c565b005b606060018054806020026020016040519081016040528092919081815260200182805480156101d457602002820191906000526020600020905b8160009054906101000a900473ffffffffffffffffffffffffffffffffffffffff1673ffffffffffffffffffffffffffffffffffffffff168152602001906001019080831161018a575b5050505050905090565b600073ffffffffffffffffffffffffffffffffffffffff166000808373ffffffffffffffffffffffffffffffffffffffff1673ffffffffffffffffffffffffffffffffffffffff16815260200190815260200160002060000160009054906101000a900473ffffffffffffffffffffffffffffffffffffffff1673ffffffffffffffffffffffffffffffffffffffff16146102ae576040517f08c379a00000000000000000000000000000000000000000000000000000000081526004016102a590610e6f565b60405180910390fd5b60405180606001604052808273ffffffffffffffffffffffffffffffffffffffff168152602001600060028111156102e9576102e8610a67565b5b8152602001604051806020016040528060008152508152506000808373ffffffffffffffffffffffffffffffffffffffff1673ffffffffffffffffffffffffffffffffffffffff16815260200190815260200160002060008201518160000160006101000a81548173ffffffffffffffffffffffffffffffffffffffff021916908373ffffffffffffffffffffffffffffffffffffffff16021790555060208201518160000160146101000a81548160ff021916908360028111156103b1576103b0610a67565b5b021790555060408201518160010190816103cb919061109b565b509050506001819080600181540180825580915050600190039060005260206000200160009091909190916101000a81548173ffffffffffffffffffffffffffffffffffffffff021916908373ffffffffffffffffffffffffffffffffffffffff16021790555050565b60006020528060005260406000206000915090508060000160009054906101000a900473ffffffffffffffffffffffffffffffffffffffff16908060000160149054906101000a900460ff169080600101805461049190610ebe565b80601f01602080910402602001604051908101604052809291908181526020018280546104bd90610ebe565b801561050a5780601f106104df5761010080835404028352916020019161050a565b820191906000526020600020905b8154815290600101906020018083116104ed57829003601f168201915b5050505050905083565b6001818154811061052457600080fd5b906000526020600020016000915054906101000a900473ffffffffffffffffffffffffffffffffffffffff1681565b60006060600073ffffffffffffffffffffffffffffffffffffffff166000808573ffffffffffffffffffffffffffffffffffffffff1673ffffffffffffffffffffffffffffffffffffffff16815260200190815260200160002060000160009054906101000a900473ffffffffffffffffffffffffffffffffffffffff1673ffffffffffffffffffffffffffffffffffffffff1603610627576040517f08c379a000000000000000000000000000000000000000000000000000000000815260040161061e906111b9565b60405180910390fd5b6000808473ffffffffffffffffffffffffffffffffffffffff1673ffffffffffffffffffffffffffffffffffffffff16815260200190815260200160002060000160149054906101000a900460ff166000808573ffffffffffffffffffffffffffffffffffffffff1673ffffffffffffffffffffffffffffffffffffffff1681526020019081526020016000206001018080546106c390610ebe565b80601f01602080910402602001604051908101604052809291908181526020018280546106ef90610ebe565b801561073c5780601f106107115761010080835404028352916020019161073c565b820191906000526020600020905b81548152906001019060200180831161071f57829003601f168201915b5050505050905091509150915091565b600073ffffffffffffffffffffffffffffffffffffffff166000808573ffffffffffffffffffffffffffffffffffffffff1673ffffffffffffffffffffffffffffffffffffffff16815260200190815260200160002060000160009054906101000a900473ffffffffffffffffffffffffffffffffffffffff1673ffffffffffffffffffffffffffffffffffffffff160361081c576040517f08c379a0000000000000000000000000000000000000000000000000000000008152600401610813906111b9565b60405180910390fd5b816000808573ffffffffffffffffffffffffffffffffffffffff1673ffffffffffffffffffffffffffffffffffffffff16815260200190815260200160002060000160146101000a81548160ff021916908360028111156108805761087f610a67565b5b0217905550806000808573ffffffffffffffffffffffffffffffffffffffff1673ffffffffffffffffffffffffffffffffffffffff16815260200190815260200160002060010190816108d3919061109b565b50505050565b600081519050919050565b600082825260208201905092915050565b6000819050602082019050919050565b600073ffffffffffffffffffffffffffffffffffffffff82169050919050565b600061093082610905565b9050919050565b61094081610925565b82525050565b60006109528383610937565b60208301905092915050565b6000602082019050919050565b6000610976826108d9565b61098081856108e4565b935061098b836108f5565b8060005b838110156109bc5781516109a38882610946565b97506109ae8361095e565b92505060018101905061098f565b5085935050505092915050565b600060208201905081810360008301526109e3818461096b565b905092915050565b6000604051905090565b600080fd5b600080fd5b610a0881610925565b8114610a1357600080fd5b50565b600081359050610a25816109ff565b92915050565b600060208284031215610a4157610a406109f5565b5b6000610a4f84828501610a16565b91505092915050565b610a6181610925565b82525050565b7f4e487b7100000000000000000000000000000000000000000000000000000000600052602160045260246000fd5b60038110610aa757610aa6610a67565b5b50565b6000819050610ab882610a96565b919050565b6000610ac882610aaa565b9050919050565b610ad881610abd565b82525050565b600081519050919050565b600082825260208201905092915050565b60005b83811015610b18578082015181840152602081019050610afd565b60008484015250505050565b6000601f19601f8301169050919050565b6000610b4082610ade565b610b4a8185610ae9565b9350610b5a818560208601610afa565b610b6381610b24565b840191505092915050565b6000606082019050610b836000830186610a58565b610b906020830185610acf565b8181036040830152610ba28184610b35565b9050949350505050565b6000819050919050565b610bbf81610bac565b8114610bca57600080fd5b50565b600081359050610bdc81610bb6565b92915050565b600060208284031215610bf857610bf76109f5565b5b6000610c0684828501610bcd565b91505092915050565b6000602082019050610c246000830184610a58565b92915050565b6000604082019050610c3f6000830185610acf565b8181036020830152610c518184610b35565b90509392505050565b60038110610c6757600080fd5b50565b600081359050610c7981610c5a565b92915050565b600080fd5b600080fd5b7f4e487b7100000000000000000000000000000000000000000000000000000000600052604160045260246000fd5b610cc182610b24565b810181811067ffffffffffffffff82111715610ce057610cdf610c89565b5b80604052505050565b6000610cf36109eb565b9050610cff8282610cb8565b919050565b600067ffffffffffffffff821115610d1f57610d1e610c89565b5b610d2882610b24565b9050602081019050919050565b82818337600083830152505050565b6000610d57610d5284610d04565b610ce9565b905082815260208101848484011115610d7357610d72610c84565b5b610d7e848285610d35565b509392505050565b600082601f830112610d9b57610d9a610c7f565b5b8135610dab848260208601610d44565b91505092915050565b600080600060608486031215610dcd57610dcc6109f5565b5b6000610ddb86828701610a16565b9350506020610dec86828701610c6a565b925050604084013567ffffffffffffffff811115610e0d57610e0c6109fa565b5b610e1986828701610d86565b9150509250925092565b7f436f6e747261637420616c726561647920657869737473000000000000000000600082015250565b6000610e59601783610ae9565b9150610e6482610e23565b602082019050919050565b60006020820190508181036000830152610e8881610e4c565b9050919050565b7f4e487b7100000000000000000000000000000000000000000000000000000000600052602260045260246000fd5b60006002820490506001821680610ed657607f821691505b602082108103610ee957610ee8610e8f565b5b50919050565b60008190508160005260206000209050919050565b60006020601f8301049050919050565b600082821b905092915050565b600060088302610f517fffffffffffffffffffffffffffffffffffffffffffffffffffffffffffffffff82610f14565b610f5b8683610f14565b95508019841693508086168417925050509392505050565b6000819050919050565b6000610f98610f93610f8e84610bac565b610f73565b610bac565b9050919050565b6000819050919050565b610fb283610f7d565b610fc6610fbe82610f9f565b848454610f21565b825550505050565b600090565b610fdb610fce565b610fe6818484610fa9565b505050565b5b8181101561100a57610fff600082610fd3565b600181019050610fec565b5050565b601f82111561104f5761102081610eef565b61102984610f04565b81016020851015611038578190505b61104c61104485610f04565b830182610feb565b50505b505050565b600082821c905092915050565b600061107260001984600802611054565b1980831691505092915050565b600061108b8383611061565b9150826002028217905092915050565b6110a482610ade565b67ffffffffffffffff8111156110bd576110bc610c89565b5b6110c78254610ebe565b6110d282828561100e565b600060209050601f83116001811461110557600084156110f3578287015190505b6110fd858261107f565b865550611165565b601f19841661111386610eef565b60005b8281101561113b57848901518255600182019150602085019450602081019050611116565b868310156111585784890151611154601f891682611061565b8355505b6001600288020188555050505b505050505050565b7f436f6e747261637420646f6573206e6f74206578697374000000000000000000600082015250565b60006111a3601783610ae9565b91506111ae8261116d565b602082019050919050565b600060208201905081810360008301526111d281611196565b905091905056fea2646970667358221220a224adfbfbbf8d2ddbff91ed1ddd6bcdaa48fd0c31176fe2d77cc45056bd0e9364736f6c634300081c0033",
  "linkReferences": {},
  "deployedLinkReferences": {}
}